{
  "contractName": "Bond",
  "abi": [
    {
      "inputs": [
        {
          "internalType": "uint256",
          "name": "cap",
          "type": "uint256"
        }
      ],
      "stateMutability": "nonpayable",
      "type": "constructor"
    },
    {
      "anonymous": false,
      "inputs": [
        {
          "indexed": true,
          "internalType": "address",
          "name": "owner",
          "type": "address"
        },
        {
          "indexed": true,
          "internalType": "address",
          "name": "spender",
          "type": "address"
        },
        {
          "indexed": false,
          "internalType": "uint256",
          "name": "value",
          "type": "uint256"
        }
      ],
      "name": "Approval",
      "type": "event"
    },
    {
      "anonymous": false,
      "inputs": [
        {
          "indexed": true,
          "internalType": "address",
          "name": "previousOwner",
          "type": "address"
        },
        {
          "indexed": true,
          "internalType": "address",
          "name": "newOwner",
          "type": "address"
        }
      ],
      "name": "OwnershipTransferred",
      "type": "event"
    },
    {
      "anonymous": false,
      "inputs": [
        {
          "indexed": true,
          "internalType": "address",
          "name": "from",
          "type": "address"
        },
        {
          "indexed": true,
          "internalType": "address",
          "name": "to",
          "type": "address"
        },
        {
          "indexed": false,
          "internalType": "uint256",
          "name": "value",
          "type": "uint256"
        }
      ],
      "name": "Transfer",
      "type": "event"
    },
    {
      "inputs": [
        {
          "internalType": "address",
          "name": "owner",
          "type": "address"
        },
        {
          "internalType": "address",
          "name": "spender",
          "type": "address"
        }
      ],
      "name": "allowance",
      "outputs": [
        {
          "internalType": "uint256",
          "name": "",
          "type": "uint256"
        }
      ],
      "stateMutability": "view",
      "type": "function",
      "constant": true
    },
    {
      "inputs": [
        {
          "internalType": "address",
          "name": "spender",
          "type": "address"
        },
        {
          "internalType": "uint256",
          "name": "amount",
          "type": "uint256"
        }
      ],
      "name": "approve",
      "outputs": [
        {
          "internalType": "bool",
          "name": "",
          "type": "bool"
        }
      ],
      "stateMutability": "nonpayable",
      "type": "function"
    },
    {
      "inputs": [
        {
          "internalType": "address",
          "name": "account",
          "type": "address"
        }
      ],
      "name": "balanceOf",
      "outputs": [
        {
          "internalType": "uint256",
          "name": "",
          "type": "uint256"
        }
      ],
      "stateMutability": "view",
      "type": "function",
      "constant": true
    },
    {
      "inputs": [
        {
          "internalType": "uint256",
          "name": "amount",
          "type": "uint256"
        }
      ],
      "name": "burn",
      "outputs": [],
      "stateMutability": "nonpayable",
      "type": "function"
    },
    {
      "inputs": [
        {
          "internalType": "address",
          "name": "account",
          "type": "address"
        },
        {
          "internalType": "uint256",
          "name": "amount",
          "type": "uint256"
        }
      ],
      "name": "burnFrom",
      "outputs": [],
      "stateMutability": "nonpayable",
      "type": "function"
    },
    {
      "inputs": [],
      "name": "cap",
      "outputs": [
        {
          "internalType": "uint256",
          "name": "",
          "type": "uint256"
        }
      ],
      "stateMutability": "view",
      "type": "function",
      "constant": true
    },
    {
      "inputs": [],
      "name": "decimals",
      "outputs": [
        {
          "internalType": "uint8",
          "name": "",
          "type": "uint8"
        }
      ],
      "stateMutability": "view",
      "type": "function",
      "constant": true
    },
    {
      "inputs": [
        {
          "internalType": "address",
          "name": "spender",
          "type": "address"
        },
        {
          "internalType": "uint256",
          "name": "subtractedValue",
          "type": "uint256"
        }
      ],
      "name": "decreaseAllowance",
      "outputs": [
        {
          "internalType": "bool",
          "name": "",
          "type": "bool"
        }
      ],
      "stateMutability": "nonpayable",
      "type": "function"
    },
    {
      "inputs": [
        {
          "internalType": "address",
          "name": "spender",
          "type": "address"
        },
        {
          "internalType": "uint256",
          "name": "addedValue",
          "type": "uint256"
        }
      ],
      "name": "increaseAllowance",
      "outputs": [
        {
          "internalType": "bool",
          "name": "",
          "type": "bool"
        }
      ],
      "stateMutability": "nonpayable",
      "type": "function"
    },
    {
      "inputs": [],
      "name": "name",
      "outputs": [
        {
          "internalType": "string",
          "name": "",
          "type": "string"
        }
      ],
      "stateMutability": "view",
      "type": "function",
      "constant": true
    },
    {
      "inputs": [],
      "name": "owner",
      "outputs": [
        {
          "internalType": "address",
          "name": "",
          "type": "address"
        }
      ],
      "stateMutability": "view",
      "type": "function",
      "constant": true
    },
    {
      "inputs": [],
      "name": "renounceOwnership",
      "outputs": [],
      "stateMutability": "nonpayable",
      "type": "function"
    },
    {
      "inputs": [],
      "name": "symbol",
      "outputs": [
        {
          "internalType": "string",
          "name": "",
          "type": "string"
        }
      ],
      "stateMutability": "view",
      "type": "function",
      "constant": true
    },
    {
      "inputs": [],
      "name": "totalSupply",
      "outputs": [
        {
          "internalType": "uint256",
          "name": "",
          "type": "uint256"
        }
      ],
      "stateMutability": "view",
      "type": "function",
      "constant": true
    },
    {
      "inputs": [
        {
          "internalType": "address",
          "name": "recipient",
          "type": "address"
        },
        {
          "internalType": "uint256",
          "name": "amount",
          "type": "uint256"
        }
      ],
      "name": "transfer",
      "outputs": [
        {
          "internalType": "bool",
          "name": "",
          "type": "bool"
        }
      ],
      "stateMutability": "nonpayable",
      "type": "function"
    },
    {
      "inputs": [
        {
          "internalType": "address",
          "name": "sender",
          "type": "address"
        },
        {
          "internalType": "address",
          "name": "recipient",
          "type": "address"
        },
        {
          "internalType": "uint256",
          "name": "amount",
          "type": "uint256"
        }
      ],
      "name": "transferFrom",
      "outputs": [
        {
          "internalType": "bool",
          "name": "",
          "type": "bool"
        }
      ],
      "stateMutability": "nonpayable",
      "type": "function"
    },
    {
      "inputs": [
        {
          "internalType": "address",
          "name": "newOwner",
          "type": "address"
        }
      ],
      "name": "transferOwnership",
      "outputs": [],
      "stateMutability": "nonpayable",
      "type": "function"
    },
    {
      "inputs": [
        {
          "internalType": "address",
          "name": "_notifyOnTransfer",
          "type": "address"
        },
        {
          "internalType": "address",
          "name": "_target",
          "type": "address"
        },
        {
          "internalType": "uint256",
          "name": "_start",
          "type": "uint256"
        },
        {
          "internalType": "uint256",
          "name": "_end",
          "type": "uint256"
        }
      ],
      "name": "defineParameters",
      "outputs": [],
      "stateMutability": "nonpayable",
      "type": "function"
    },
    {
      "inputs": [
        {
          "internalType": "address",
          "name": "account",
          "type": "address"
        },
        {
          "internalType": "uint256",
          "name": "amount",
          "type": "uint256"
        }
      ],
      "name": "mint",
      "outputs": [],
      "stateMutability": "nonpayable",
      "type": "function"
    }
  ],
  "bytecode": "0x60806040523480156200001157600080fd5b50604051620014d7380380620014d7833981810160405260208110156200003757600080fd5b50516040805180820182526004815263109bdb9960e21b6020828101918252835190810190935260008352815184939162000076916003919062000161565b5080516200008c90600490602084019062000161565b50506005805460ff191660121790555080620000ef576040805162461bcd60e51b815260206004820152601560248201527f45524332304361707065643a2063617020697320300000000000000000000000604482015290519081900360640190fd5b6006556000620001076001600160e01b036200015c16565b600780546001600160a01b0319166001600160a01b038316908117909155604051919250906000907f8be0079c531659141344cd1fd0a4f28419497f9722a3daafe3b4186f6b6457e0908290a3505062000203565b335b90565b828054600181600116156101000203166002900490600052602060002090601f016020900481019282601f10620001a457805160ff1916838001178555620001d4565b82800160010185558215620001d4579182015b82811115620001d4578251825591602001919060010190620001b7565b50620001e2929150620001e6565b5090565b6200015e91905b80821115620001e25760008155600101620001ed565b6112c480620002136000396000f3fe608060405234801561001057600080fd5b50600436106101215760003560e01c806370a08231116100ad578063a457c2d711610071578063a457c2d714610356578063a9059cbb14610382578063dd62ed3e146103ae578063ec68ed09146103dc578063f2fde38b1461041857610121565b806370a08231146102d0578063715018a6146102f657806379cc6790146102fe5780638da5cb5b1461032a57806395d89b411461034e57610121565b8063313ce567116100f4578063313ce56714610233578063355274ea14610251578063395093511461025957806340c10f191461028557806342966c68146102b357610121565b806306fdde0314610126578063095ea7b3146101a357806318160ddd146101e357806323b872dd146101fd575b600080fd5b61012e61043e565b6040805160208082528351818301528351919283929083019185019080838360005b83811015610168578181015183820152602001610150565b50505050905090810190601f1680156101955780820380516001836020036101000a031916815260200191505b509250505060405180910390f35b6101cf600480360360408110156101b957600080fd5b506001600160a01b0381351690602001356104d4565b604080519115158252519081900360200190f35b6101eb6104f1565b60408051918252519081900360200190f35b6101cf6004803603606081101561021357600080fd5b506001600160a01b038135811691602081013590911690604001356104f7565b61023b610584565b6040805160ff9092168252519081900360200190f35b6101eb61058d565b6101cf6004803603604081101561026f57600080fd5b506001600160a01b038135169060200135610593565b6102b16004803603604081101561029b57600080fd5b506001600160a01b0381351690602001356105e7565b005b6102b1600480360360208110156102c957600080fd5b503561064d565b6101eb600480360360208110156102e657600080fd5b50356001600160a01b0316610661565b6102b161067c565b6102b16004803603604081101561031457600080fd5b506001600160a01b03813516906020013561071e565b61033261077e565b604080516001600160a01b039092168252519081900360200190f35b61012e61078d565b6101cf6004803603604081101561036c57600080fd5b506001600160a01b0381351690602001356107ee565b6101cf6004803603604081101561039857600080fd5b506001600160a01b03813516906020013561085c565b6101eb600480360360408110156103c457600080fd5b506001600160a01b0381358116916020013516610870565b6102b1600480360360808110156103f257600080fd5b506001600160a01b0381358116916020810135909116906040810135906060013561089b565b6102b16004803603602081101561042e57600080fd5b50356001600160a01b031661092b565b60038054604080516020601f60026000196101006001881615020190951694909404938401819004810282018101909252828152606093909290918301828280156104ca5780601f1061049f576101008083540402835291602001916104ca565b820191906000526020600020905b8154815290600101906020018083116104ad57829003601f168201915b5050505050905090565b60006104e86104e1610a24565b8484610a28565b50600192915050565b60025490565b6000610504848484610b14565b61057a84610510610a24565b61057585604051806060016040528060288152602001611194602891396001600160a01b038a1660009081526001602052604081209061054e610a24565b6001600160a01b03168152602081019190915260400160002054919063ffffffff610c7b16565b610a28565b5060019392505050565b60055460ff1690565b60065490565b60006104e86105a0610a24565b8461057585600160006105b1610a24565b6001600160a01b03908116825260208083019390935260409182016000908120918c16815292529020549063ffffffff610d1216565b6105ef610a24565b6007546001600160a01b0390811691161461063f576040805162461bcd60e51b815260206004820181905260248201526000805160206111bc833981519152604482015290519081900360640190fd5b6106498282610d73565b5050565b61065e610658610a24565b82610d7d565b50565b6001600160a01b031660009081526020819052604090205490565b610684610a24565b6007546001600160a01b039081169116146106d4576040805162461bcd60e51b815260206004820181905260248201526000805160206111bc833981519152604482015290519081900360640190fd5b6007546040516000916001600160a01b0316907f8be0079c531659141344cd1fd0a4f28419497f9722a3daafe3b4186f6b6457e0908390a3600780546001600160a01b0319169055565b600061075b826040518060600160405280602481526020016111dc6024913961074e86610749610a24565b610870565b919063ffffffff610c7b16565b905061076f83610769610a24565b83610a28565b6107798383610d7d565b505050565b6007546001600160a01b031690565b60048054604080516020601f60026000196101006001881615020190951694909404938401819004810282018101909252828152606093909290918301828280156104ca5780601f1061049f576101008083540402835291602001916104ca565b60006104e86107fb610a24565b846105758560405180606001604052806025815260200161126a6025913960016000610825610a24565b6001600160a01b03908116825260208083019390935260409182016000908120918d1681529252902054919063ffffffff610c7b16565b60006104e8610869610a24565b8484610b14565b6001600160a01b03918216600090815260016020908152604080832093909416825291909152205490565b6108a3610a24565b6007546001600160a01b039081169116146108f3576040805162461bcd60e51b815260206004820181905260248201526000805160206111bc833981519152604482015290519081900360640190fd5b600a80546001600160a01b039485166001600160a01b031991821617909155600b805495909416941693909317909155600855600955565b610933610a24565b6007546001600160a01b03908116911614610983576040805162461bcd60e51b815260206004820181905260248201526000805160206111bc833981519152604482015290519081900360640190fd5b6001600160a01b0381166109c85760405162461bcd60e51b81526004018080602001828103825260268152602001806111266026913960400191505060405180910390fd5b6007546040516001600160a01b038084169216907f8be0079c531659141344cd1fd0a4f28419497f9722a3daafe3b4186f6b6457e090600090a3600780546001600160a01b0319166001600160a01b0392909216919091179055565b3390565b6001600160a01b038316610a6d5760405162461bcd60e51b81526004018080602001828103825260248152602001806112466024913960400191505060405180910390fd5b6001600160a01b038216610ab25760405162461bcd60e51b815260040180806020018281038252602281526020018061114c6022913960400191505060405180910390fd5b6001600160a01b03808416600081815260016020908152604080832094871680845294825291829020859055815185815291517f8c5be1e5ebec7d5bd14f71427d1e84f3dd0314c0f7b2291e5b200ac8c7c3b9259281900390910190a3505050565b6001600160a01b038316610b595760405162461bcd60e51b81526004018080602001828103825260258152602001806112216025913960400191505060405180910390fd5b6001600160a01b038216610b9e5760405162461bcd60e51b81526004018080602001828103825260238152602001806110e16023913960400191505060405180910390fd5b610ba9838383610e85565b610bec8160405180606001604052806026815260200161116e602691396001600160a01b038616600090815260208190526040902054919063ffffffff610c7b16565b6001600160a01b038085166000908152602081905260408082209390935590841681522054610c21908263ffffffff610d1216565b6001600160a01b038084166000818152602081815260409182902094909455805185815290519193928716927fddf252ad1be2c89b69c2b068fc378daa952ba7f163c4a11628f55a4df523b3ef92918290030190a3505050565b60008184841115610d0a5760405162461bcd60e51b81526004018080602001828103825283818151815260200191508051906020019080838360005b83811015610ccf578181015183820152602001610cb7565b50505050905090810190601f168015610cfc5780820380516001836020036101000a031916815260200191505b509250505060405180910390fd5b505050900390565b600082820183811015610d6c576040805162461bcd60e51b815260206004820152601b60248201527f536166654d6174683a206164646974696f6e206f766572666c6f770000000000604482015290519081900360640190fd5b9392505050565b6106498282610f1b565b6001600160a01b038216610dc25760405162461bcd60e51b81526004018080602001828103825260218152602001806112006021913960400191505060405180910390fd5b610dce82600083610e85565b610e1181604051806060016040528060228152602001611104602291396001600160a01b038516600090815260208190526040902054919063ffffffff610c7b16565b6001600160a01b038316600090815260208190526040902055600254610e3d908263ffffffff61101716565b6002556040805182815290516000916001600160a01b038516917fddf252ad1be2c89b69c2b068fc378daa952ba7f163c4a11628f55a4df523b3ef9181900360200190a35050565b610e90838383611059565b610e9861077e565b600a54604080516301bdf3ad60e51b81526001600160a01b0392831660048201528683166024820152858316604482015260648101859052905192909116916337be75a09160848082019260009290919082900301818387803b158015610efe57600080fd5b505af1158015610f12573d6000803e3d6000fd5b50505050505050565b6001600160a01b038216610f76576040805162461bcd60e51b815260206004820152601f60248201527f45524332303a206d696e7420746f20746865207a65726f206164647265737300604482015290519081900360640190fd5b610f8260008383610e85565b600254610f95908263ffffffff610d1216565b6002556001600160a01b038216600090815260208190526040902054610fc1908263ffffffff610d1216565b6001600160a01b0383166000818152602081815260408083209490945583518581529351929391927fddf252ad1be2c89b69c2b068fc378daa952ba7f163c4a11628f55a4df523b3ef9281900390910190a35050565b6000610d6c83836040518060400160405280601e81526020017f536166654d6174683a207375627472616374696f6e206f766572666c6f770000815250610c7b565b611064838383610779565b6001600160a01b0383166107795760065461108d826110816104f1565b9063ffffffff610d1216565b1115610779576040805162461bcd60e51b815260206004820152601960248201527f45524332304361707065643a2063617020657863656564656400000000000000604482015290519081900360640190fdfe45524332303a207472616e7366657220746f20746865207a65726f206164647265737345524332303a206275726e20616d6f756e7420657863656564732062616c616e63654f776e61626c653a206e6577206f776e657220697320746865207a65726f206164647265737345524332303a20617070726f766520746f20746865207a65726f206164647265737345524332303a207472616e7366657220616d6f756e7420657863656564732062616c616e636545524332303a207472616e7366657220616d6f756e74206578636565647320616c6c6f77616e63654f776e61626c653a2063616c6c6572206973206e6f7420746865206f776e657245524332303a206275726e20616d6f756e74206578636565647320616c6c6f77616e636545524332303a206275726e2066726f6d20746865207a65726f206164647265737345524332303a207472616e736665722066726f6d20746865207a65726f206164647265737345524332303a20617070726f76652066726f6d20746865207a65726f206164647265737345524332303a2064656372656173656420616c6c6f77616e63652062656c6f77207a65726fa264697066735822122063bda83ceaf7ccd66e2fb12bb99a6c09d2d9a2c89a5ae8d74e5542c73c88c23c64736f6c63430006020033",
  "source": "pragma solidity ^0.6.2;\n\nimport \"@openzeppelin/contracts/token/ERC20/ERC20.sol\";\nimport \"@openzeppelin/contracts/token/ERC20/ERC20Burnable.sol\";\nimport \"@openzeppelin/contracts/token/ERC20/ERC20Capped.sol\";\nimport \"@openzeppelin/contracts/access/Ownable.sol\";\nimport \"./INotifyBeforeTokenTransfer.sol\";\n\ncontract Bond is ERC20, ERC20Capped, ERC20Burnable, Ownable {\n  uint256 start;\n  uint256 end;\n  address target;\n  address notifyOnTransfer;\n\n  constructor(uint256 cap) public\n    // no ticker because there can be overlapping bonds\n    // need custom ticker / categorization by attributes\n    ERC20(\"Bond\", \"\")\n    ERC20Capped(cap)\n    ERC20Burnable()\n    Ownable() // creator is owner\n  {}\n\n  function defineParameters(\n    address _notifyOnTransfer,\n    address _target,\n    uint256 _start,\n    uint256 _end\n  ) public onlyOwner {\n    target = _target;\n    notifyOnTransfer = _notifyOnTransfer;\n    start = _start;\n    end = _end;\n  }\n\n  function mint(address account, uint256 amount) public onlyOwner {\n    _mint(account, amount);\n  }\n\n  function _mint(address account, uint256 amount) internal override {\n    super._mint(account, amount);\n  }\n\n  function _beforeTokenTransfer(address from, address to, uint256 amount) internal virtual override(ERC20, ERC20Capped) {\n    super._beforeTokenTransfer(from, to, amount);\n    // if beforeTokenTransfer is false, the underlying transfer is rejected\n    // on the other side of this, one could change the allowance from one user to another\n    INotifyBeforeTokenTransfer(owner()).beforeTokenTransfer(target, from, to, amount);\n  }\n}\n",
  "sourcePath": "/Users/michaelmclaughlin/Sites/blockchain/ethereum/hex/contracts/Bond.sol",
  "compiler": {
    "name": "solc",
    "version": "0.6.2+commit.bacdbe57.Emscripten.clang"
  },
  "schemaVersion": "3.2.0",
  "updatedAt": "2020-05-28T12:32:53.131Z",
  "networkType": "ethereum",
  "devdoc": {
    "methods": {
      "allowance(address,address)": {
        "details": "See {IERC20-allowance}."
      },
      "approve(address,uint256)": {
        "details": "See {IERC20-approve}.     * Requirements:     * - `spender` cannot be the zero address."
      },
      "balanceOf(address)": {
        "details": "See {IERC20-balanceOf}."
      },
      "burn(uint256)": {
        "details": "Destroys `amount` tokens from the caller.     * See {ERC20-_burn}."
      },
      "burnFrom(address,uint256)": {
        "details": "Destroys `amount` tokens from `account`, deducting from the caller's allowance.     * See {ERC20-_burn} and {ERC20-allowance}.     * Requirements:     * - the caller must have allowance for ``accounts``'s tokens of at least `amount`."
      },
      "cap()": {
        "details": "Returns the cap on the token's total supply."
      },
      "decimals()": {
        "details": "Returns the number of decimals used to get its user representation. For example, if `decimals` equals `2`, a balance of `505` tokens should be displayed to a user as `5,05` (`505 / 10 ** 2`).     * Tokens usually opt for a value of 18, imitating the relationship between Ether and Wei. This is the value {ERC20} uses, unless {_setupDecimals} is called.     * NOTE: This information is only used for _display_ purposes: it in no way affects any of the arithmetic of the contract, including {IERC20-balanceOf} and {IERC20-transfer}."
      },
      "decreaseAllowance(address,uint256)": {
        "details": "Atomically decreases the allowance granted to `spender` by the caller.     * This is an alternative to {approve} that can be used as a mitigation for problems described in {IERC20-approve}.     * Emits an {Approval} event indicating the updated allowance.     * Requirements:     * - `spender` cannot be the zero address. - `spender` must have allowance for the caller of at least `subtractedValue`."
      },
      "increaseAllowance(address,uint256)": {
        "details": "Atomically increases the allowance granted to `spender` by the caller.     * This is an alternative to {approve} that can be used as a mitigation for problems described in {IERC20-approve}.     * Emits an {Approval} event indicating the updated allowance.     * Requirements:     * - `spender` cannot be the zero address."
      },
      "name()": {
        "details": "Returns the name of the token."
      },
      "owner()": {
        "details": "Returns the address of the current owner."
      },
      "renounceOwnership()": {
        "details": "Leaves the contract without owner. It will not be possible to call `onlyOwner` functions anymore. Can only be called by the current owner.     * NOTE: Renouncing ownership will leave the contract without an owner, thereby removing any functionality that is only available to the owner."
      },
      "symbol()": {
        "details": "Returns the symbol of the token, usually a shorter version of the name."
      },
      "totalSupply()": {
        "details": "See {IERC20-totalSupply}."
      },
      "transfer(address,uint256)": {
        "details": "See {IERC20-transfer}.     * Requirements:     * - `recipient` cannot be the zero address. - the caller must have a balance of at least `amount`."
      },
      "transferFrom(address,address,uint256)": {
        "details": "See {IERC20-transferFrom}.     * Emits an {Approval} event indicating the updated allowance. This is not required by the EIP. See the note at the beginning of {ERC20};     * Requirements: - `sender` and `recipient` cannot be the zero address. - `sender` must have a balance of at least `amount`. - the caller must have allowance for ``sender``'s tokens of at least `amount`."
      },
      "transferOwnership(address)": {
        "details": "Transfers ownership of the contract to a new account (`newOwner`). Can only be called by the current owner."
      }
    }
  },
  "userdoc": {
    "methods": {}
  }
}