{
  "contractName": "BondFactory",
  "abi": [
    {
      "inputs": [
        {
          "internalType": "address",
          "name": "owner",
          "type": "address"
        }
      ],
      "stateMutability": "nonpayable",
      "type": "constructor"
    },
    {
      "inputs": [
        {
          "internalType": "address",
          "name": "_notifyOnTransfer",
          "type": "address"
        },
        {
          "internalType": "address",
          "name": "_target",
          "type": "address"
        },
        {
          "internalType": "uint256",
          "name": "_start",
          "type": "uint256"
        },
        {
          "internalType": "uint256",
          "name": "_end",
          "type": "uint256"
        }
      ],
      "name": "create",
      "outputs": [
        {
          "internalType": "address",
          "name": "",
          "type": "address"
        }
      ],
      "stateMutability": "nonpayable",
      "type": "function"
    }
  ],
  "bytecode": "0x608060405234801561001057600080fd5b506040516116033803806116038339818101604052602081101561003357600080fd5b50506115bf806100446000396000f3fe608060405234801561001057600080fd5b506004361061002b5760003560e01c8063d5c44c6914610030575b600080fd5b61006c6004803603608081101561004657600080fd5b506001600160a01b03813581169160208101359091169060408101359060600135610088565b604080516001600160a01b039092168252519081900360200190f35b60008484848460405161009a906100ea565b6001600160a01b0394851681529290931660208301526040808301919091526060820192909252905190819003608001906000f0801580156100e0573d6000803e3d6000fd5b5095945050505050565b611492806100f88339019056fe60806040523480156200001157600080fd5b506040516200149238038062001492833981810160405260808110156200003757600080fd5b508051602080830151604080850151606090950151815180830183526004815263109bdb9960e21b8186019081528351958601909352600085528051959693959394919390926200008c916003919062000196565b508051620000a290600490602084019062000196565b50506005805460ff19166012179055506000620000c76001600160e01b036200019116565b60058054610100600160a81b0319166101006001600160a01b03841690810291909117909155604051919250906000907f8be0079c531659141344cd1fd0a4f28419497f9722a3daafe3b4186f6b6457e0908290a350600880546001600160a01b038086166001600160a01b031992831617909255600980549287169290911691909117905560068290556007819055604080516060810190915260368082526200145c602083013980516200018691600a9160209091019062000196565b505050505062000238565b335b90565b828054600181600116156101000203166002900490600052602060002090601f016020900481019282601f10620001d957805160ff191683800117855562000209565b8280016001018555821562000209579182015b8281111562000209578251825591602001919060010190620001ec565b50620002179291506200021b565b5090565b6200019391905b8082111562000217576000815560010162000222565b61121480620002486000396000f3fe608060405234801561001057600080fd5b506004361061010b5760003560e01c8063715018a6116100a2578063a0712d6811610071578063a0712d681461030c578063a457c2d714610329578063a9059cbb14610355578063dd62ed3e14610381578063f2fde38b146103af5761010b565b8063715018a6146102ac57806379cc6790146102b45780638da5cb5b146102e057806395d89b41146103045761010b565b8063313ce567116100de578063313ce5671461021d578063395093511461023b57806342966c681461026757806370a08231146102865761010b565b806306fdde0314610110578063095ea7b31461018d57806318160ddd146101cd57806323b872dd146101e7575b600080fd5b6101186103d5565b6040805160208082528351818301528351919283929083019185019080838360005b8381101561015257818101518382015260200161013a565b50505050905090810190601f16801561017f5780820380516001836020036101000a031916815260200191505b509250505060405180910390f35b6101b9600480360360408110156101a357600080fd5b506001600160a01b03813516906020013561046b565b604080519115158252519081900360200190f35b6101d5610488565b60408051918252519081900360200190f35b6101b9600480360360608110156101fd57600080fd5b506001600160a01b0381358116916020810135909116906040013561048e565b61022561051b565b6040805160ff9092168252519081900360200190f35b6101b96004803603604081101561025157600080fd5b506001600160a01b038135169060200135610524565b6102846004803603602081101561027d57600080fd5b5035610578565b005b6101d56004803603602081101561029c57600080fd5b50356001600160a01b031661058c565b6102846105a7565b610284600480360360408110156102ca57600080fd5b506001600160a01b038135169060200135610666565b6102e86106c6565b604080516001600160a01b039092168252519081900360200190f35b6101186106da565b6102846004803603602081101561032257600080fd5b503561073b565b6101b96004803603604081101561033f57600080fd5b506001600160a01b0381351690602001356107b4565b6101b96004803603604081101561036b57600080fd5b506001600160a01b038135169060200135610822565b6101d56004803603604081101561039757600080fd5b506001600160a01b0381358116916020013516610836565b610284600480360360208110156103c557600080fd5b50356001600160a01b0316610861565b60038054604080516020601f60026000196101006001881615020190951694909404938401819004810282018101909252828152606093909290918301828280156104615780601f1061043657610100808354040283529160200191610461565b820191906000526020600020905b81548152906001019060200180831161044457829003601f168201915b5050505050905090565b600061047f61047861097c565b8484610980565b50600192915050565b60025490565b600061049b848484610a6c565b610511846104a761097c565b61050c85604051806060016040528060288152602001611104602891396001600160a01b038a166000908152600160205260408120906104e561097c565b6001600160a01b03168152602081019190915260400160002054919063ffffffff610bd316565b610980565b5060019392505050565b60055460ff1690565b600061047f61053161097c565b8461050c856001600061054261097c565b6001600160a01b03908116825260208083019390935260409182016000908120918c16815292529020549063ffffffff610c6a16565b61058961058361097c565b82610ccb565b50565b6001600160a01b031660009081526020819052604090205490565b6105af61097c565b60055461010090046001600160a01b03908116911614610616576040805162461bcd60e51b815260206004820181905260248201527f4f776e61626c653a2063616c6c6572206973206e6f7420746865206f776e6572604482015290519081900360640190fd5b60055460405160009161010090046001600160a01b0316907f8be0079c531659141344cd1fd0a4f28419497f9722a3daafe3b4186f6b6457e0908390a360058054610100600160a81b0319169055565b60006106a38260405180606001604052806024815260200161112c602491396106968661069161097c565b610836565b919063ffffffff610bd316565b90506106b7836106b161097c565b83610980565b6106c18383610ccb565b505050565b60055461010090046001600160a01b031690565b60048054604080516020601f60026000196101006001881615020190951694909404938401819004810282018101909252828152606093909290918301828280156104615780601f1061043657610100808354040283529160200191610461565b61074361097c565b60055461010090046001600160a01b039081169116146107aa576040805162461bcd60e51b815260206004820181905260248201527f4f776e61626c653a2063616c6c6572206973206e6f7420746865206f776e6572604482015290519081900360640190fd5b6105893082610dd3565b600061047f6107c161097c565b8461050c856040518060600160405280602581526020016111ba60259139600160006107eb61097c565b6001600160a01b03908116825260208083019390935260409182016000908120918d1681529252902054919063ffffffff610bd316565b600061047f61082f61097c565b8484610a6c565b6001600160a01b03918216600090815260016020908152604080832093909416825291909152205490565b61086961097c565b60055461010090046001600160a01b039081169116146108d0576040805162461bcd60e51b815260206004820181905260248201527f4f776e61626c653a2063616c6c6572206973206e6f7420746865206f776e6572604482015290519081900360640190fd5b6001600160a01b0381166109155760405162461bcd60e51b81526004018080602001828103825260268152602001806110966026913960400191505060405180910390fd5b6005546040516001600160a01b0380841692610100900416907f8be0079c531659141344cd1fd0a4f28419497f9722a3daafe3b4186f6b6457e090600090a3600580546001600160a01b0390921661010002610100600160a81b0319909216919091179055565b3390565b6001600160a01b0383166109c55760405162461bcd60e51b81526004018080602001828103825260248152602001806111966024913960400191505060405180910390fd5b6001600160a01b038216610a0a5760405162461bcd60e51b81526004018080602001828103825260228152602001806110bc6022913960400191505060405180910390fd5b6001600160a01b03808416600081815260016020908152604080832094871680845294825291829020859055815185815291517f8c5be1e5ebec7d5bd14f71427d1e84f3dd0314c0f7b2291e5b200ac8c7c3b9259281900390910190a3505050565b6001600160a01b038316610ab15760405162461bcd60e51b81526004018080602001828103825260258152602001806111716025913960400191505060405180910390fd5b6001600160a01b038216610af65760405162461bcd60e51b81526004018080602001828103825260238152602001806110516023913960400191505060405180910390fd5b610b01838383610ecf565b610b44816040518060600160405280602681526020016110de602691396001600160a01b038616600090815260208190526040902054919063ffffffff610bd316565b6001600160a01b038085166000908152602081905260408082209390935590841681522054610b79908263ffffffff610c6a16565b6001600160a01b038084166000818152602081815260409182902094909455805185815290519193928716927fddf252ad1be2c89b69c2b068fc378daa952ba7f163c4a11628f55a4df523b3ef92918290030190a3505050565b60008184841115610c625760405162461bcd60e51b81526004018080602001828103825283818151815260200191508051906020019080838360005b83811015610c27578181015183820152602001610c0f565b50505050905090810190601f168015610c545780820380516001836020036101000a031916815260200191505b509250505060405180910390fd5b505050900390565b600082820183811015610cc4576040805162461bcd60e51b815260206004820152601b60248201527f536166654d6174683a206164646974696f6e206f766572666c6f770000000000604482015290519081900360640190fd5b9392505050565b6001600160a01b038216610d105760405162461bcd60e51b81526004018080602001828103825260218152602001806111506021913960400191505060405180910390fd5b610d1c82600083610ecf565b610d5f81604051806060016040528060228152602001611074602291396001600160a01b038516600090815260208190526040902054919063ffffffff610bd316565b6001600160a01b038316600090815260208190526040902055600254610d8b908263ffffffff61100e16565b6002556040805182815290516000916001600160a01b038516917fddf252ad1be2c89b69c2b068fc378daa952ba7f163c4a11628f55a4df523b3ef9181900360200190a35050565b6001600160a01b038216610e2e576040805162461bcd60e51b815260206004820152601f60248201527f45524332303a206d696e7420746f20746865207a65726f206164647265737300604482015290519081900360640190fd5b610e3a60008383610ecf565b600254610e4d908263ffffffff610c6a16565b6002556001600160a01b038216600090815260208190526040902054610e79908263ffffffff610c6a16565b6001600160a01b0383166000818152602081815260408083209490945583518581529351929391927fddf252ad1be2c89b69c2b068fc378daa952ba7f163c4a11628f55a4df523b3ef9281900390910190a35050565b600954600854604080516301bdf3ad60e51b81526001600160a01b03928316600482015286831660248201528583166044820152606481018590529051919092169182916337be75a0916084808201926020929091908290030181600087803b158015610f3b57600080fd5b505af1158015610f4f573d6000803e3d6000fd5b505050506040513d6020811015610f6557600080fd5b5051600a906110075760405162461bcd60e51b8152602060048201908152825460026000196101006001841615020190911604602483018190529091829160449091019084908015610ff85780601f10610fcd57610100808354040283529160200191610ff8565b820191906000526020600020905b815481529060010190602001808311610fdb57829003601f168201915b50509250505060405180910390fd5b5050505050565b6000610cc483836040518060400160405280601e81526020017f536166654d6174683a207375627472616374696f6e206f766572666c6f770000815250610bd356fe45524332303a207472616e7366657220746f20746865207a65726f206164647265737345524332303a206275726e20616d6f756e7420657863656564732062616c616e63654f776e61626c653a206e6577206f776e657220697320746865207a65726f206164647265737345524332303a20617070726f766520746f20746865207a65726f206164647265737345524332303a207472616e7366657220616d6f756e7420657863656564732062616c616e636545524332303a207472616e7366657220616d6f756e74206578636565647320616c6c6f77616e636545524332303a206275726e20616d6f756e74206578636565647320616c6c6f77616e636545524332303a206275726e2066726f6d20746865207a65726f206164647265737345524332303a207472616e736665722066726f6d20746865207a65726f206164647265737345524332303a20617070726f76652066726f6d20746865207a65726f206164647265737345524332303a2064656372656173656420616c6c6f77616e63652062656c6f77207a65726fa26469706673582212204a1c8022769c3e71720fe325ee7045a3deecd0cfa1aadc3f88d4a8acd00b759064736f6c63430006020033426f6e643a204265666f726520546f6b656e205472616e73666572202d20756e61626c6520746f207472616e7366657220746f6b656ea2646970667358221220a9be9d9d0419c0348fa5160027d1944f65acd9b76a5328c6a4112b20f732ea7164736f6c63430006020033",
  "source": "pragma solidity ^0.6.2;\n\nimport \"@openzeppelin/contracts/token/ERC20/ERC20Burnable.sol\";\nimport \"./Bond.sol\";\n\ncontract BondFactory {\n  constructor(address owner) public {}\n  function create(\n    address _notifyOnTransfer,\n    address _target,\n    uint256 _start,\n    uint256 _end\n  ) public returns(address) {\n    return address(new Bond(\n      _notifyOnTransfer,\n      _target,\n      _start,\n      _end\n    ));\n  }\n}\n",
  "sourcePath": "/Users/michaelmclaughlin/Sites/blockchain/ethereum/hex/contracts/BondFactory.sol",
  "compiler": {
    "name": "solc",
    "version": "0.6.2+commit.bacdbe57.Emscripten.clang"
  },
  "schemaVersion": "3.2.0",
  "updatedAt": "2020-05-26T04:20:34.416Z",
  "devdoc": {
    "methods": {}
  },
  "userdoc": {
    "methods": {}
  }
}